:1000000008308A00002800003B3084008313000879
:10001000031917280230F800F701F70B0D28F80B29
:100020000C289730F700F70B1328800B0A280800DC
:10003000420EF039F7000F30080577048800000001
:10004000081422282328081008000808F700080EC2
:100050000F39F80008008316081088100811831261
:1000600088100F3083160805F038880083120815B1
:1000700000000814000025207808C20008100000C5
:100080000814422825207808C10008100F30831674
:10009000080588008312420EF700F030F705770854
:1000A0004104F8007808C100C11B31283F1C8810AA
:1000B0003F1888140000081100000810400EC1000D
:1000C0000F30C1054108C200182040080F39C10097
:1000D000C200182008002830AE000C30AF000130FC
:1000E000B0000630B1000810881008110F308316D8
:1000F000080588000810881008110F308312BB0013
:1001000004200130AD002D08033C031C8F28033070
:10011000C20018200530BB000420AD0A832802303D
:10012000C20018200530BB000420AD012D08033C9F
:10013000031CA6282E302D07840083130008B2006C
:10014000BF013208C0002B20AD0A96288A150A127A
:100150001A288E30F7003608F8003508F900FA0141
:10016000F808031DBD287908F800F9010830F702E6
:10017000F808031DBD28F701C5280310F81BC42883
:10018000F90DF80DF703BD28F81308003608BD0077
:100190003A08BD06BD1FD12803110310B61B031476
:1001A00004293608BD003908BE003508BE0203190F
:1001B000DF28BD1F04290308013A830004293A08F7
:1001C000BE003608BE020319EB28BD1F0429030830
:1001D000013A830004293B08BE003708BE02031918
:1001E000F728BD1F04290308013A830004293C08AD
:1001F000BE003808BE0203190329BD1F04290308E5
:10020000013A830004290310080035080319CA299C
:10021000C10039080319CA29C102031C14297F30FF
:10022000C1070318CA291A298130C102031CCA292F
:100230000319CA294108F700F801F901FA01C001C0
:100240003608BF00BF173708BE003808BD00193098
:10025000C1003C08BD0203183D290130BE0203184D
:100260003D29BF0203183D29C00203183D29C00AD9
:10027000BF0ABE0A3C08BD076F293B08BE0203182F
:1002800058290130BF0203185829C0020318582901
:10029000C00ABF0A3B08BE073C08BD07031C6F2904
:1002A000BE0A031D6F29BF0A031D6F29C00A6F29EB
:1002B0003A088038BF0203186E290130C0020318C3
:1002C0006E29C00A3A088038BF073B08BE07031CE6
:1002D0004C29BF0A031D4C29C00A4C297A14C10BB2
:1002E00072297D290310BD0DBE0DBF0DC00D031079
:1002F000FA0DF90DF80DC20D2929421C85290310AC
:10030000F80CF90CFA0CC20C8829F7030319CA2956
:10031000C21BB1290310BD0DBE0DBF0DC00D3C08A1
:10032000BD0203189D290130BE0203189D29BF029A
:1003300003189D29C002031CC0293B08BE020318F4
:10034000A8290130BF020318A829C002031CC02934
:100350003A088038BF020318B1290130C002031CDB
:10036000C029FA0A031DC029F90A031DC029F80A89
:10037000031DC029F70A0319CA29F80CF90CFA0C55
:100380003608C1003A08C106C11FC829F817CE298E
:10039000F813CE29F701F801F901FA010800B001BC
:1003A000AF01AE01AD01B401B301B201B1018614D8
:1003B0000630F700F70BDA29000086108E018F0156
:1003C0008E01000006180C2A0F08FA000E08F7002C
:1003D0000F087A02031DE4297708B5007A08B600F1
:1003E000A9207A08B4007908B3007808B200770829
:1003F000B100B801DC30B7007F30B6008E30B500F8
:100400003408BC003308BB003208BA003108B90018
:10041000C62003180C2AE2298E018F018E010000EC
:10042000061C3A2A0F08FA000E08F7000F087A0295
:10043000031D122A7708B5007A08B600A9207A08A9
:10044000B4007908B3007808B2007708B100B801A9
:10045000DC30B7007F30B6008E30B5003408BC0009
:100460003308BB003208BA003108B900C6200318AF
:100470003A2A102A0F08FA000E08F7000F087A022D
:10048000031D3A2A7708B5007A08B600A9207A0831
:10049000B4007908B3007808B2007708B1003408D6
:1004A000B8003308B7003208B6003108B500BC0107
:1004B000BB016830BA008430B90005217A08B00069
:1004C0007908AF007808AE007708AD002D08F70076
:1004D0002E08F8002F08F9003008FA008A150A12D1
:1004E0005528B001AF01AE01AD01B401B301B201B5
:1004F000B10186150630F700F70B7C2A0000861143
:100500008E018F018E0100000619AE2A0F08FA0035
:100510000E08F7000F087A02031D862A7708B50037
:100520007A08B600A9207A08B4007908B3007808E0
:10053000B2007708B100B801DC30B7007F30B600F8
:100540008E30B5003408BC003308BB003208BA0056
:100550003108B900C6200318AE2A842A8E018F0103
:100560008E010000061DDC2A0F08FA000E08F700B5
:100570000F087A02031DB42A7708B5007A08B6007E
:10058000A9207A08B4007908B3007808B200770887
:10059000B100B801DC30B7007F30B6008E30B50056
:1005A0003408BC003308BB003208BA003108B90077
:1005B000C6200318DC2AB22A0F08FA000E08F7003A
:1005C0000F087A02031DDC2A7708B5007A08B60006
:1005D000A9207A08B4007908B3007808B200770837
:1005E000B1003408B8003308B7003208B60031084B
:1005F000B500BC01BB016830BA008430B9000521E8
:100600007A08B0007908AF007808AE007708AD002E
:100610002D08F7002E08F8002F08F9003008FA001E
:100620008A150A126528B001AF01AE01AD01B4010F
:10063000B301B201B10186160630F700F70B1E2B8D
:10064000000086128E018F018E010000061A502BC9
:100650000F08FA000E08F7000F087A02031D282B76
:100660007708B5007A08B600A9207A08B40079089E
:10067000B3007808B2007708B100B801DC30B700E9
:100680007F30B6008E30B5003408BC003308BB00A4
:100690003208BA003108B900C6200318502B262BA7
:1006A0008E018F018E010000061E7E2B0F08FA00BE
:1006B0000E08F7000F087A02031D562B7708B500C5
:1006C0007A08B600A9207A08B4007908B30078083F
:1006D000B2007708B100B801DC30B7007F30B60057
:1006E0008E30B5003408BC003308BB003208BA00B5
:1006F0003108B900C62003187E2B542B0F08FA00CE
:100700000E08F7000F087A02031D7E2B7708B5004C
:100710007A08B600A9207A08B4007908B3007808EE
:10072000B2007708B1003408B8003308B7003208C7
:10073000B6003108B500BC01BB016830BA00843096
:10074000B90005217A08B0007908AF007808AE003A
:100750007708AD002D08F7002E08F8002F08F900E3
:100760003008FA008A150A127528643095001708B7
:10077000CF3997000510851464309B001D08CF39D0
:100780009D000511851508003C0BC72BCA2B403076
:10079000BD00CB2BBD0101303B02BD073D088038B9
:1007A000BE00BF013E08C0002B2008003A08073AEF
:1007B0000319E42B0B3A0319E92B063A0319F12B21
:1007C000023A0319F72BFC2B0130BB00BC00C423F9
:1007D000012CBF010130C0002B200230BB000420DF
:1007E000012C0130BB000230BC00C423012CBF012E
:1007F0001030C0002B20012C0130BF003A08C0008F
:100800002B2008008318072C423084008313F70143
:10081000F801F901FA01C201C301C401C50141088F
:1008200040043F043E040319452C2030C600031049
:10083000BA0DBB0DBC0DBD0DC20DC30DC40DC50D54
:1008400041084502031D2E2C40084402031D2E2C96
:100850003F084302031D2E2C3E084202031C3F2C7E
:100860003E08C2023F08031C3F0FC3024008031C9E
:10087000400FC4024108031C410FC5020314F70DC9
:10088000F80DF90DFA0DC60B172C42088000840AEA
:1008900043088000840A44088000840A45088000D8
:1008A00008000408B2003108B4000319E32C300832
:1008B000BD002F08BC002E08BB002D08BA00C101E6
:1008C000C0012030BF008230BE003A080319D52C89
:1008D000C2003E080319D52CC2070318762C7F30BE
:1008E000C202031CD52C0319D52C7A2C8130C207E7
:1008F0000318D52C4208F700F801F901FA013B086A
:10090000C600C6173C08C5003D08C4001830C20028
:10091000C301441CA32C4108FA07031C952CF90AB7
:10092000031D952CF80A0319C3174008F907031C87
:100930009C2CF80A0319C3173F08BC00BC173C08DD
:10094000F8070318C317C30DF80CF90CFA0CC60C02
:10095000C50CC40C0310C20B882C0130F707031818
:10096000D52CF81BBA2CC60DFA0DF90DF80DF703AE
:100970000319D52CC61FCB2CFA0A031DCB2CF90A60
:10098000031DCB2CF80A031DCB2CF80CF90CFA0C28
:10099000F70A0319D52C3B08C3003F08C306C31F41
:1009A000D32CF817D92CF813D92CF701F801F90139
:1009B000FA017A08B0007908AF007808AE0077082D
:1009C000AD00B40B572C3008BD002F08BC002E081A
:1009D000BB002D08BA003A08B63CBA00FA013B0841
:1009E000BE00BB170310BB0CBC0CBD0CFA0CF90C01
:1009F000F80CF70CBA0BF22CBE1F092DF709F809F9
:100A0000F909FA09F70A0319F80A0319F90A031987
:100A1000FA0A7A08B0007908AF007808AE007708C3
:100A2000AD00B01F202DB203B216AD09AE09AF095B
:100A3000B009AD0A0319AE0A0319AF0A0319B00AC7
:100A40003B30B9009A30B800CA30B700B6010A305E
:100A5000B40031080319B20A83142D3084008313C3
:100A60003008BD002F08BC002E08BB002D08BA00BE
:100A70003908C1003808C0003708BF003608BE007A
:100A800002247808F708031D582D310A340203198F
:100A9000582D320803195A2D0F3934020319522DDB
:100AA00003188A2DB21B8A2D321B5A2D2030862D19
:100AB0002030B205B21E682DB2123108031DB203F8
:100AC0007708B2002D30BA00D6233208F700B20101
:100AD00031083402031D762D7708B2002E30BA009B
:100AE000D6233208F7002030B20500303030B21E75
:100AF000862DB2123108031DB2037708B2002D30E3
:100B0000BA00D6233208F700B2013030F707770871
:100B1000BA00D62383103908BD003808BC00370856
:100B2000BB003608BA00C101C001BF010A30BE00D7
:100B300002247A08B9007908B8007808B700770865
:100B4000B600B40B2C2D080095011708CF3997007B
:100B5000051085109B011D08CF399D0005118511D9
:100B60000800C83095001708CF3997000514851084
:100B7000C8309B001D08CF399D0005158511080060
:100B80003C3095001708CF39970005108514523076
:100B90009B001D08CF3920389D00051585118A1549
:100BA0000A1278293C3095001708CF3997000514B0
:100BB000851052309B001D08CF3920389D0005114B
:100BC00085158A150A12D12995011708CF39970082
:100BD000051085144B309B001D08CF399D00051171
:100BE000851508004B3095001708CF399700051080
:100BF00085149B011D08CF399D000511851508003E
:1010000003081F398300713083168F0090010F0889
:1010100003170908C039890003131F129F120030FB
:1010200003178800831287018801890183138A11BD
:1010300003136B288A15553083168600FF30950000
:101040008113831286010030831687008312870183
:10105000831685008312850183168800FF30831272
:101060008800153090008E018F018E010000003045
:10107000F800063892007D30831692008312071123
:101080000C30970083169B019C0101309D00831258
:1010900087100C309D0095011708CF3997009B01F0
:1010A0001D08CF399D008A11CF298A157A08A4001E
:1010B0007908A3007808A2007708A1000A30BB00D5
:1010C0008A1104208A158A11712A8A157A08A800C3
:1010D0007908A7007808A6007708A5000A30BB00A9
:1010E0008A1104208A158A11132B8A157A08AC00FC
:1010F0007908AB007808AA007708A9000A30BB007D
:101100008A1104208A15B801B7012030B600823058
:10111000B5002408BC002308BB002208BA0021083F
:10112000B9008A11C6208A15031C9E288A11B5238E
:101130008A158316091083120914A2288316091030
:1011400083120910B801B7012030B6008230B50013
:101150002808BC002708BB002608BA002508B900EB
:101160008A11C6208A15031CBA2883168910831297
:101170008914BE288316891083128910B801B7011B
:101180002030B6008230B5002C08BC002B08BB0014
:101190002A08BA002908B9008A11C6208A15031C3A
:1011A000D6288316091183120915DA288316091126
:1011B000831209110130BB00BC008A11C4238A15B7
:1011C0004C30BA008A11D6238A15C93084002C0805
:1011D000B0002B08AF002A08AE002908AD0001308E
:1011E000B1008A1151248A150630BB000130BC00C1
:1011F0008A11C4238A155230BA008A11D6238A155F
:10120000C93084002808B0002708AF002608AE00C7
:101210002508AD000130B1008A1151248A150C3027
:10122000BB000130BC008A11C4238A154630BA00C5
:101230008A11D6238A15C93084002408B0002308F7
:10124000AF002208AE002108AD000130B1008A11C4
:1012500051248A152408B8002308B7002208B600D4
:101260002108B500BC01BB017030BA008130B90063
:101270008A11C6208A1503183F29031D83292808CF
:10128000B8002708B7002608B6002508B500BC013D
:10129000BB014030BA008230B9008A11C6208A15DD
:1012A000031C83298A11A4258A150230AD009630CB
:1012B000BB008A1104208A15AD0B57298A11B1256C
:1012C0008A150430AD00FA30BB008A1104208A155B
:1012D000AD0B63298A11A4258A150230AD00E130D7
:1012E000BB008A1104208A15AD0B6F298A11C02D0D
:1012F0008A150230AD00D230BB008A1104208A1555
:10130000AD0B7B29882A2408B8002308B7002208DF
:10131000B6002108B500BC01BB017030BA008130B5
:10132000B9008A11C6208A1503189829031DDC29E3
:101330002C08B8002B08B7002A08B6002908B50009
:10134000BC01BB014030BA008230B9008A11C6200E
:101350008A15031CDC298A11A4258A150230AD00E8
:101360009630BB008A1104208A15AD0BB0298A1172
:10137000B1258A150430AD00FA30BB008A11042073
:101380008A15AD0BBC298A11A4258A150230AD003F
:10139000E130BB008A1104208A15AD0BC8298A11DF
:1013A000D22D8A150230AD00D230BB008A11042044
:1013B0008A15AD0BD429882A2408B8002308B70061
:1013C0002208B6002108B500BC01BB017030BA008C
:1013D0008130B9008A11C6208A150318F129031D2E
:1013E000162A8A11A4258A150230AD009630BB005A
:1013F0008A1104208A15AD0BF6298A11B1258A15A8
:101400000430AD00FA30BB008A1104208A15AD0B00
:10141000022A8A11A4258A150230AD00E130BB00F2
:101420008A1104208A15AD0B0E2A882A2808B800D4
:101430002708B7002608B6002508B500BC01BB0187
:101440000830BA008230B9008A11C6208A15031804
:101450002B2A031D342A8A11E4258A153230BB0059
:101460008A1104208A15882A2C08B8002B08B70096
:101470002A08B6002908B500BC01BB017030BA00CB
:101480008130B9008A11C6208A150318492A031D24
:10149000522A8A11F2258A153230BB008A110420A3
:1014A0008A15882AB801B7014830B6008230B500E5
:1014B0002808BC002708BB002608BA002508B90088
:1014C0008A11C6208A150318672A031D802A8A11EB
:1014D000E4258A156430BB008A1104208A158A111C
:1014E000B5238A159630BB008A1104208A158A110B
:1014F000F2258A15FA30BB008A1104208A15882A41
:101500008A11B5238A153230BB008A1104208A154E
:0415100053286300F9
:04400E00F42CFF3F50
:00000001FF
;PIC16F887
;CRC=1A1E  CREATED="07-jun.-23 16:18"
